{"project/src/contracts/Ipcm.sol":{"Web3WorkProfiles":{"abi":[{"anonymous":false,"inputs":[{"indexed":true,"internalType":"address","name":"user","type":"address"},{"indexed":false,"internalType":"string","name":"cid","type":"string"},{"indexed":false,"internalType":"uint256","name":"timestamp","type":"uint256"}],"name":"ProfileUpdated","type":"event"},{"inputs":[{"internalType":"address","name":"user","type":"address"}],"name":"getProfileCID","outputs":[{"internalType":"string","name":"","type":"string"}],"stateMutability":"view","type":"function"},{"inputs":[{"internalType":"address","name":"newOwner","type":"address"}],"name":"transferProfileOwnership","outputs":[],"stateMutability":"nonpayable","type":"function"},{"inputs":[{"internalType":"string","name":"cid","type":"string"}],"name":"updateProfileCID","outputs":[],"stateMutability":"nonpayable","type":"function"}],"evm":{"bytecode":{"linkReferences":{},"object":"608060405234801561000f575f80fd5b5061054e8061001d5f395ff3fe608060405234801561000f575f80fd5b506004361061003f575f3560e01c8063428da91214610043578063603f7b5914610058578063de8b05be1461006b575b5f80fd5b6100566100513660046102aa565b610094565b005b610056610066366004610316565b61010c565b61007e610079366004610316565b6101a2565b60405161008b9190610343565b60405180910390f35b335f9081526020819052604090206100ad828483610427565b50335f818152600160205260409081902080546001600160a01b03191683179055517fdcb94c0b2c025b0736b4b62b1c595f2ca7ad4c711eada6026d477e87de9cca0890610100908590859042906104e1565b60405180910390a25050565b335f818152600160205260409020546001600160a01b03161461016a5760405162461bcd60e51b81526020600482015260116024820152702737ba10383937b334b6329037bbb732b960791b60448201526064015b60405180910390fd5b6001600160a01b03165f8181526001602052604080822080546001600160a01b03199081169094179055338252902080549091169055565b6001600160a01b038082165f8181526001602052604090205460609216146102055760405162461bcd60e51b8152602060048201526016602482015275141c9bd99a5b19481b9bdd081c9959da5cdd195c995960521b6044820152606401610161565b6001600160a01b0382165f9081526020819052604090208054610227906103a3565b80601f0160208091040260200160405190810160405280929190818152602001828054610253906103a3565b801561029e5780601f106102755761010080835404028352916020019161029e565b820191905f5260205f20905b81548152906001019060200180831161028157829003601f168201915b50505050509050919050565b5f80602083850312156102bb575f80fd5b823567ffffffffffffffff808211156102d2575f80fd5b818501915085601f8301126102e5575f80fd5b8135818111156102f3575f80fd5b866020828501011115610304575f80fd5b60209290920196919550909350505050565b5f60208284031215610326575f80fd5b81356001600160a01b038116811461033c575f80fd5b9392505050565b5f602080835283518060208501525f5b8181101561036f57858101830151858201604001528201610353565b505f604082860101526040601f19601f8301168501019250505092915050565b634e487b7160e01b5f52604160045260245ffd5b600181811c908216806103b757607f821691505b6020821081036103d557634e487b7160e01b5f52602260045260245ffd5b50919050565b601f82111561042257805f5260205f20601f840160051c810160208510156104005750805b601f840160051c820191505b8181101561041f575f815560010161040c565b50505b505050565b67ffffffffffffffff83111561043f5761043f61038f565b6104538361044d83546103a3565b836103db565b5f601f841160018114610484575f851561046d5750838201355b5f19600387901b1c1916600186901b17835561041f565b5f83815260208120601f198716915b828110156104b35786850135825560209485019460019092019101610493565b50868210156104cf575f1960f88860031b161c19848701351681555b505060018560011b0183555050505050565b60408152826040820152828460608301375f606084830101525f6060601f19601f860116830101905082602083015294935050505056fea264697066735822122066ecff3cec63dbd94d063e638a1e718340a647f4abf1b0afb2ee4eea84387b3164736f6c63430008170033","opcodes":"PUSH1 0x80 PUSH1 0x40 MSTORE CALLVALUE DUP1 ISZERO PUSH2 0xF JUMPI PUSH0 DUP1 REVERT JUMPDEST POP PUSH2 0x54E DUP1 PUSH2 0x1D PUSH0 CODECOPY PUSH0 RETURN INVALID PUSH1 0x80 PUSH1 0x40 MSTORE CALLVALUE DUP1 ISZERO PUSH2 0xF JUMPI PUSH0 DUP1 REVERT JUMPDEST POP PUSH1 0x4 CALLDATASIZE LT PUSH2 0x3F JUMPI PUSH0 CALLDATALOAD PUSH1 0xE0 SHR DUP1 PUSH4 0x428DA912 EQ PUSH2 0x43 JUMPI DUP1 PUSH4 0x603F7B59 EQ PUSH2 0x58 JUMPI DUP1 PUSH4 0xDE8B05BE EQ PUSH2 0x6B JUMPI JUMPDEST PUSH0 DUP1 REVERT JUMPDEST PUSH2 0x56 PUSH2 0x51 CALLDATASIZE PUSH1 0x4 PUSH2 0x2AA JUMP JUMPDEST PUSH2 0x94 JUMP JUMPDEST STOP JUMPDEST PUSH2 0x56 PUSH2 0x66 CALLDATASIZE PUSH1 0x4 PUSH2 0x316 JUMP JUMPDEST PUSH2 0x10C JUMP JUMPDEST PUSH2 0x7E PUSH2 0x79 CALLDATASIZE PUSH1 0x4 PUSH2 0x316 JUMP JUMPDEST PUSH2 0x1A2 JUMP JUMPDEST PUSH1 0x40 MLOAD PUSH2 0x8B SWAP2 SWAP1 PUSH2 0x343 JUMP JUMPDEST PUSH1 0x40 MLOAD DUP1 SWAP2 SUB SWAP1 RETURN JUMPDEST CALLER PUSH0 SWAP1 DUP2 MSTORE PUSH1 0x20 DUP2 SWAP1 MSTORE PUSH1 0x40 SWAP1 KECCAK256 PUSH2 0xAD DUP3 DUP5 DUP4 PUSH2 0x427 JUMP JUMPDEST POP CALLER PUSH0 DUP2 DUP2 MSTORE PUSH1 0x1 PUSH1 0x20 MSTORE PUSH1 0x40 SWAP1 DUP2 SWAP1 KECCAK256 DUP1 SLOAD PUSH1 0x1 PUSH1 0x1 PUSH1 0xA0 SHL SUB NOT AND DUP4 OR SWAP1 SSTORE MLOAD PUSH32 0xDCB94C0B2C025B0736B4B62B1C595F2CA7AD4C711EADA6026D477E87DE9CCA08 SWAP1 PUSH2 0x100 SWAP1 DUP6 SWAP1 DUP6 SWAP1 TIMESTAMP SWAP1 PUSH2 0x4E1 JUMP JUMPDEST PUSH1 0x40 MLOAD DUP1 SWAP2 SUB SWAP1 LOG2 POP POP JUMP JUMPDEST CALLER PUSH0 DUP2 DUP2 MSTORE PUSH1 0x1 PUSH1 0x20 MSTORE PUSH1 0x40 SWAP1 KECCAK256 SLOAD PUSH1 0x1 PUSH1 0x1 PUSH1 0xA0 SHL SUB AND EQ PUSH2 0x16A JUMPI PUSH1 0x40 MLOAD PUSH3 0x461BCD PUSH1 0xE5 SHL DUP2 MSTORE PUSH1 0x20 PUSH1 0x4 DUP3 ADD MSTORE PUSH1 0x11 PUSH1 0x24 DUP3 ADD MSTORE PUSH17 0x2737BA10383937B334B6329037BBB732B9 PUSH1 0x79 SHL PUSH1 0x44 DUP3 ADD MSTORE PUSH1 0x64 ADD JUMPDEST PUSH1 0x40 MLOAD DUP1 SWAP2 SUB SWAP1 REVERT JUMPDEST PUSH1 0x1 PUSH1 0x1 PUSH1 0xA0 SHL SUB AND PUSH0 DUP2 DUP2 MSTORE PUSH1 0x1 PUSH1 0x20 MSTORE PUSH1 0x40 DUP1 DUP3 KECCAK256 DUP1 SLOAD PUSH1 0x1 PUSH1 0x1 PUSH1 0xA0 SHL SUB NOT SWAP1 DUP2 AND SWAP1 SWAP5 OR SWAP1 SSTORE CALLER DUP3 MSTORE SWAP1 KECCAK256 DUP1 SLOAD SWAP1 SWAP2 AND SWAP1 SSTORE JUMP JUMPDEST PUSH1 0x1 PUSH1 0x1 PUSH1 0xA0 SHL SUB DUP1 DUP3 AND PUSH0 DUP2 DUP2 MSTORE PUSH1 0x1 PUSH1 0x20 MSTORE PUSH1 0x40 SWAP1 KECCAK256 SLOAD PUSH1 0x60 SWAP3 AND EQ PUSH2 0x205 JUMPI PUSH1 0x40 MLOAD PUSH3 0x461BCD PUSH1 0xE5 SHL DUP2 MSTORE PUSH1 0x20 PUSH1 0x4 DUP3 ADD MSTORE PUSH1 0x16 PUSH1 0x24 DUP3 ADD MSTORE PUSH22 0x141C9BD99A5B19481B9BDD081C9959DA5CDD195C9959 PUSH1 0x52 SHL PUSH1 0x44 DUP3 ADD MSTORE PUSH1 0x64 ADD PUSH2 0x161 JUMP JUMPDEST PUSH1 0x1 PUSH1 0x1 PUSH1 0xA0 SHL SUB DUP3 AND PUSH0 SWAP1 DUP2 MSTORE PUSH1 0x20 DUP2 SWAP1 MSTORE PUSH1 0x40 SWAP1 KECCAK256 DUP1 SLOAD PUSH2 0x227 SWAP1 PUSH2 0x3A3 JUMP JUMPDEST DUP1 PUSH1 0x1F ADD PUSH1 0x20 DUP1 SWAP2 DIV MUL PUSH1 0x20 ADD PUSH1 0x40 MLOAD SWAP1 DUP2 ADD PUSH1 0x40 MSTORE DUP1 SWAP3 SWAP2 SWAP1 DUP2 DUP2 MSTORE PUSH1 0x20 ADD DUP3 DUP1 SLOAD PUSH2 0x253 SWAP1 PUSH2 0x3A3 JUMP JUMPDEST DUP1 ISZERO PUSH2 0x29E JUMPI DUP1 PUSH1 0x1F LT PUSH2 0x275 JUMPI PUSH2 0x100 DUP1 DUP4 SLOAD DIV MUL DUP4 MSTORE SWAP2 PUSH1 0x20 ADD SWAP2 PUSH2 0x29E JUMP JUMPDEST DUP3 ADD SWAP2 SWAP1 PUSH0 MSTORE PUSH1 0x20 PUSH0 KECCAK256 SWAP1 JUMPDEST DUP2 SLOAD DUP2 MSTORE SWAP1 PUSH1 0x1 ADD SWAP1 PUSH1 0x20 ADD DUP1 DUP4 GT PUSH2 0x281 JUMPI DUP3 SWAP1 SUB PUSH1 0x1F AND DUP3 ADD SWAP2 JUMPDEST POP POP POP POP POP SWAP1 POP SWAP2 SWAP1 POP JUMP JUMPDEST PUSH0 DUP1 PUSH1 0x20 DUP4 DUP6 SUB SLT ISZERO PUSH2 0x2BB JUMPI PUSH0 DUP1 REVERT JUMPDEST DUP3 CALLDATALOAD PUSH8 0xFFFFFFFFFFFFFFFF DUP1 DUP3 GT ISZERO PUSH2 0x2D2 JUMPI PUSH0 DUP1 REVERT JUMPDEST DUP2 DUP6 ADD SWAP2 POP DUP6 PUSH1 0x1F DUP4 ADD SLT PUSH2 0x2E5 JUMPI PUSH0 DUP1 REVERT JUMPDEST DUP2 CALLDATALOAD DUP2 DUP2 GT ISZERO PUSH2 0x2F3 JUMPI PUSH0 DUP1 REVERT JUMPDEST DUP7 PUSH1 0x20 DUP3 DUP6 ADD ADD GT ISZERO PUSH2 0x304 JUMPI PUSH0 DUP1 REVERT JUMPDEST PUSH1 0x20 SWAP3 SWAP1 SWAP3 ADD SWAP7 SWAP2 SWAP6 POP SWAP1 SWAP4 POP POP POP POP JUMP JUMPDEST PUSH0 PUSH1 0x20 DUP3 DUP5 SUB SLT ISZERO PUSH2 0x326 JUMPI PUSH0 DUP1 REVERT JUMPDEST DUP2 CALLDATALOAD PUSH1 0x1 PUSH1 0x1 PUSH1 0xA0 SHL SUB DUP2 AND DUP2 EQ PUSH2 0x33C JUMPI PUSH0 DUP1 REVERT JUMPDEST SWAP4 SWAP3 POP POP POP JUMP JUMPDEST PUSH0 PUSH1 0x20 DUP1 DUP4 MSTORE DUP4 MLOAD DUP1 PUSH1 0x20 DUP6 ADD MSTORE PUSH0 JUMPDEST DUP2 DUP2 LT ISZERO PUSH2 0x36F JUMPI DUP6 DUP2 ADD DUP4 ADD MLOAD DUP6 DUP3 ADD PUSH1 0x40 ADD MSTORE DUP3 ADD PUSH2 0x353 JUMP JUMPDEST POP PUSH0 PUSH1 0x40 DUP3 DUP7 ADD ADD MSTORE PUSH1 0x40 PUSH1 0x1F NOT PUSH1 0x1F DUP4 ADD AND DUP6 ADD ADD SWAP3 POP POP POP SWAP3 SWAP2 POP POP JUMP JUMPDEST PUSH4 0x4E487B71 PUSH1 0xE0 SHL PUSH0 MSTORE PUSH1 0x41 PUSH1 0x4 MSTORE PUSH1 0x24 PUSH0 REVERT JUMPDEST PUSH1 0x1 DUP2 DUP2 SHR SWAP1 DUP3 AND DUP1 PUSH2 0x3B7 JUMPI PUSH1 0x7F DUP3 AND SWAP2 POP JUMPDEST PUSH1 0x20 DUP3 LT DUP2 SUB PUSH2 0x3D5 JUMPI PUSH4 0x4E487B71 PUSH1 0xE0 SHL PUSH0 MSTORE PUSH1 0x22 PUSH1 0x4 MSTORE PUSH1 0x24 PUSH0 REVERT JUMPDEST POP SWAP2 SWAP1 POP JUMP JUMPDEST PUSH1 0x1F DUP3 GT ISZERO PUSH2 0x422 JUMPI DUP1 PUSH0 MSTORE PUSH1 0x20 PUSH0 KECCAK256 PUSH1 0x1F DUP5 ADD PUSH1 0x5 SHR DUP2 ADD PUSH1 0x20 DUP6 LT ISZERO PUSH2 0x400 JUMPI POP DUP1 JUMPDEST PUSH1 0x1F DUP5 ADD PUSH1 0x5 SHR DUP3 ADD SWAP2 POP JUMPDEST DUP2 DUP2 LT ISZERO PUSH2 0x41F JUMPI PUSH0 DUP2 SSTORE PUSH1 0x1 ADD PUSH2 0x40C JUMP JUMPDEST POP POP JUMPDEST POP POP POP JUMP JUMPDEST PUSH8 0xFFFFFFFFFFFFFFFF DUP4 GT ISZERO PUSH2 0x43F JUMPI PUSH2 0x43F PUSH2 0x38F JUMP JUMPDEST PUSH2 0x453 DUP4 PUSH2 0x44D DUP4 SLOAD PUSH2 0x3A3 JUMP JUMPDEST DUP4 PUSH2 0x3DB JUMP JUMPDEST PUSH0 PUSH1 0x1F DUP5 GT PUSH1 0x1 DUP2 EQ PUSH2 0x484 JUMPI PUSH0 DUP6 ISZERO PUSH2 0x46D JUMPI POP DUP4 DUP3 ADD CALLDATALOAD JUMPDEST PUSH0 NOT PUSH1 0x3 DUP8 SWAP1 SHL SHR NOT AND PUSH1 0x1 DUP7 SWAP1 SHL OR DUP4 SSTORE PUSH2 0x41F JUMP JUMPDEST PUSH0 DUP4 DUP2 MSTORE PUSH1 0x20 DUP2 KECCAK256 PUSH1 0x1F NOT DUP8 AND SWAP2 JUMPDEST DUP3 DUP2 LT ISZERO PUSH2 0x4B3 JUMPI DUP7 DUP6 ADD CALLDATALOAD DUP3 SSTORE PUSH1 0x20 SWAP5 DUP6 ADD SWAP5 PUSH1 0x1 SWAP1 SWAP3 ADD SWAP2 ADD PUSH2 0x493 JUMP JUMPDEST POP DUP7 DUP3 LT ISZERO PUSH2 0x4CF JUMPI PUSH0 NOT PUSH1 0xF8 DUP9 PUSH1 0x3 SHL AND SHR NOT DUP5 DUP8 ADD CALLDATALOAD AND DUP2 SSTORE JUMPDEST POP POP PUSH1 0x1 DUP6 PUSH1 0x1 SHL ADD DUP4 SSTORE POP POP POP POP POP JUMP JUMPDEST PUSH1 0x40 DUP2 MSTORE DUP3 PUSH1 0x40 DUP3 ADD MSTORE DUP3 DUP5 PUSH1 0x60 DUP4 ADD CALLDATACOPY PUSH0 PUSH1 0x60 DUP5 DUP4 ADD ADD MSTORE PUSH0 PUSH1 0x60 PUSH1 0x1F NOT PUSH1 0x1F DUP7 ADD AND DUP4 ADD ADD SWAP1 POP DUP3 PUSH1 0x20 DUP4 ADD MSTORE SWAP5 SWAP4 POP POP POP POP JUMP INVALID LOG2 PUSH5 0x6970667358 0x22 SLT KECCAK256 PUSH7 0xECFF3CEC63DBD9 0x4D MOD RETURNDATACOPY PUSH4 0x8A1E7183 BLOCKHASH 0xA6 SELFBALANCE DELEGATECALL 0xAB CALL 0xB0 0xAF 0xB2 0xEE 0x4E 0xEA DUP5 CODESIZE PUSH28 0x3164736F6C6343000817003300000000000000000000000000000000 "},"methodIdentifiers":{"getProfileCID(address)":"de8b05be","transferProfileOwnership(address)":"603f7b59","updateProfileCID(string)":"428da912"}}}}}