{
  "_format": "hh3-artifact-1",
  "contractName": "Web3WorkProfiles",
  "sourceName": "src/contracts/Ipcm.sol",
  "abi": [
    {
      "anonymous": false,
      "inputs": [
        {
          "indexed": true,
          "internalType": "address",
          "name": "user",
          "type": "address"
        },
        {
          "indexed": false,
          "internalType": "string",
          "name": "cid",
          "type": "string"
        },
        {
          "indexed": false,
          "internalType": "uint256",
          "name": "timestamp",
          "type": "uint256"
        }
      ],
      "name": "ProfileUpdated",
      "type": "event"
    },
    {
      "inputs": [
        {
          "internalType": "address",
          "name": "user",
          "type": "address"
        }
      ],
      "name": "getProfileCID",
      "outputs": [
        {
          "internalType": "string",
          "name": "",
          "type": "string"
        }
      ],
      "stateMutability": "view",
      "type": "function"
    },
    {
      "inputs": [
        {
          "internalType": "address",
          "name": "newOwner",
          "type": "address"
        }
      ],
      "name": "transferProfileOwnership",
      "outputs": [],
      "stateMutability": "nonpayable",
      "type": "function"
    },
    {
      "inputs": [
        {
          "internalType": "string",
          "name": "cid",
          "type": "string"
        }
      ],
      "name": "updateProfileCID",
      "outputs": [],
      "stateMutability": "nonpayable",
      "type": "function"
    }
  ],
  "bytecode": "0x608060405234801561000f575f80fd5b5061054e8061001d5f395ff3fe608060405234801561000f575f80fd5b506004361061003f575f3560e01c8063428da91214610043578063603f7b5914610058578063de8b05be1461006b575b5f80fd5b6100566100513660046102aa565b610094565b005b610056610066366004610316565b61010c565b61007e610079366004610316565b6101a2565b60405161008b9190610343565b60405180910390f35b335f9081526020819052604090206100ad828483610427565b50335f818152600160205260409081902080546001600160a01b03191683179055517fdcb94c0b2c025b0736b4b62b1c595f2ca7ad4c711eada6026d477e87de9cca0890610100908590859042906104e1565b60405180910390a25050565b335f818152600160205260409020546001600160a01b03161461016a5760405162461bcd60e51b81526020600482015260116024820152702737ba10383937b334b6329037bbb732b960791b60448201526064015b60405180910390fd5b6001600160a01b03165f8181526001602052604080822080546001600160a01b03199081169094179055338252902080549091169055565b6001600160a01b038082165f8181526001602052604090205460609216146102055760405162461bcd60e51b8152602060048201526016602482015275141c9bd99a5b19481b9bdd081c9959da5cdd195c995960521b6044820152606401610161565b6001600160a01b0382165f9081526020819052604090208054610227906103a3565b80601f0160208091040260200160405190810160405280929190818152602001828054610253906103a3565b801561029e5780601f106102755761010080835404028352916020019161029e565b820191905f5260205f20905b81548152906001019060200180831161028157829003601f168201915b50505050509050919050565b5f80602083850312156102bb575f80fd5b823567ffffffffffffffff808211156102d2575f80fd5b818501915085601f8301126102e5575f80fd5b8135818111156102f3575f80fd5b866020828501011115610304575f80fd5b60209290920196919550909350505050565b5f60208284031215610326575f80fd5b81356001600160a01b038116811461033c575f80fd5b9392505050565b5f602080835283518060208501525f5b8181101561036f57858101830151858201604001528201610353565b505f604082860101526040601f19601f8301168501019250505092915050565b634e487b7160e01b5f52604160045260245ffd5b600181811c908216806103b757607f821691505b6020821081036103d557634e487b7160e01b5f52602260045260245ffd5b50919050565b601f82111561042257805f5260205f20601f840160051c810160208510156104005750805b601f840160051c820191505b8181101561041f575f815560010161040c565b50505b505050565b67ffffffffffffffff83111561043f5761043f61038f565b6104538361044d83546103a3565b836103db565b5f601f841160018114610484575f851561046d5750838201355b5f19600387901b1c1916600186901b17835561041f565b5f83815260208120601f198716915b828110156104b35786850135825560209485019460019092019101610493565b50868210156104cf575f1960f88860031b161c19848701351681555b505060018560011b0183555050505050565b60408152826040820152828460608301375f606084830101525f6060601f19601f860116830101905082602083015294935050505056fea264697066735822122066ecff3cec63dbd94d063e638a1e718340a647f4abf1b0afb2ee4eea84387b3164736f6c63430008170033",
  "linkReferences": {},
  "deployedLinkReferences": {},
  "immutableReferences": {},
  "inputSourceName": "project/src/contracts/Ipcm.sol",
  "buildInfoId": "solc-0_8_23-4b23120f6c99e38f60f6b78ccba3156d2843ee07"
}